:1000000008C1000034C1000032C1000030C100004E
:100010002EC100002CC100002AC1000028C1000030
:1000200026C10000EBC30000E9C30000E7C30000E5
:100030001EC100001CC100001AC1000018C1000050
:1000400016C1000014C1000012C1000010C1000060
:100050000EC100000CC100000AC1000085C30000F1
:1000600006C100004BC3000020C3000000C1000017
:10007000FEC00000FCC00000FAC00000F8C0000094
:10008000F6C00000F4C00000F2C00000F0C00000A4
:10009000EEC00000ECC00000EAC00000E8C00000B4
:1000A000E6C00000E4C00000E2C00000E0C00000C4
:1000B000DEC00000DCC00000DAC00000D8C00000D4
:1000C000D6C00000D4C00000D2C00000D0C00000E4
:1000D000CEC00000CCC00000CAC00000C8C00000F4
:1000E000C6C00000BC02BF02AE02B202B602F602F7
:1000F000C302C702CD02D102D502DB02DF02E30256
:10010000F602E902ED02F10200000A0B02090C0DF1
:100110000E080703040100000000000000000000BA
:1001200000000000000000000000000000000000CF
:10013000000000001211100000000000000000008C
:1001400000000000000000000000000000000000AF
:100150002200250028002B002E003100340002016F
:100160000000050108010B01000021002400270008
:100170002A002D00300033000101000004010701B6
:100180000A0105050505070508080808020202021C
:100190000A0A080804040404010101010101010123
:1001A0000303030303030303040707070C0C0C0CEE
:1001B0000C0C0C0C020202020606060606060606D7
:1001C0000B0B0B0B0B0B0B0B010210202008081064
:1001D00020401020408002010201080402010102B7
:1001E0000408102040808040201008040201800490
:1001F00002018040201008040201080402010102EB
:10020000040810204080010204081020408053049C
:10021000160611241FBECFEFD1E2DEBFCDBF00E036
:100220000CBF24E0A0E4B2E001C01D92AF30B207E1
:10023000E1F712E0A0E0B2E0E2ECF0E100E00BBF99
:1002400002C007900D92A034B107D9F711E0C8E0C1
:10025000D1E000E005C021970109802FFE0103D500
:10026000C730D10780E00807B1F7C4D319C7C8CE9B
:1002700090E0FC01E853FE4F2491FC01EE57FE4F45
:100280008491882399F090E0880F991FFC01E85928
:10029000FE4FA591B491FC01E25BFE4F85919491D4
:1002A0008FB7F894EC91E22BEC938FBF0895CF9227
:1002B000DF92EF92FF920F931F93CF93DF936C0126
:1002C0007A018B01C0E0D0E0CE15DF0581F0D801C6
:1002D0006D918D01D601ED91FC910190F081E02DA1
:1002E000C6011995892B11F02196EECF7E01C70129
:1002F000DF91CF911F910F91FF90EF90DF90CF9002
:100300000895FC01538D448D252F30E0842F90E01B
:10031000821B930B541710F0CF9608950197089500
:10032000FC01918D828D981761F0828DDF01A80FFD
:10033000B11D5D968C91928D9F5F9F73928F90E01F
:1003400008958FEF9FEF0895FC01918D828D98178E
:1003500031F0828DE80FF11D858D90E008958FEFCB
:100360009FEF0895FC01918D228D892F90E0805C94
:100370009F4F821B91098F73992708958EE492E015
:10038000F1DF21E0892B09F420E0822F0895FC01A0
:10039000848DDF01A80FB11DA35ABF4F2C91848D0E
:1003A00090E001968F739927848FA689B7892C9343
:1003B000A089B1898C91837080648C93938D848D96
:1003C000981306C00288F389E02D80818F7D808399
:1003D0000895EF92FF920F931F93CF93DF93EC0159
:1003E00081E0888F9B8D8C8D981305C0E889F989F1
:1003F000808185FD25C0F62E0B8D10E00F5F1F4F0D
:100400000F731127E02E8C8DE8120BC00FB607FC7E
:10041000FACFE889F989808185FFF5CFCE01B7DF72
:10042000F2CF8B8DFE01E80FF11DE35AFF4FF082F2
:100430009FB7F8940B8FEA89FB89808180620AC09C
:100440009FB7F894EE89FF896083E889F9898081F4
:100450008370806480839FBF81E090E0DF91CF91C3
:100460001F910F91FF90EF900895CF93DF93EC01D0
:10047000888D8823C1F0EA89FB89808185FD05C0CC
:10048000A889B9898C9186FD0EC00FB607FCF5CFFF
:10049000808185FFF2CFA889B9898C9185FFEDCF46
:1004A000CE0175DFE8CFDF91CF91089580E090E035
:1004B000892B19F063DF811125C080E090E0892B42
:1004C00041F080E090E0892B21F00E940000811132
:1004D0001CC080E090E0892B41F080E090E0892B07
:1004E00021F00E940000811113C080E090E0892B70
:1004F000A1F080E090E0892B81F00E940000811142
:100500000AC008950E940000D8CF0E940000E1CFE9
:100510000E940000EACF0C9400000895362F90E06E
:10052000FC01E85FFE4F4491FC01E853FE4F24912B
:10053000FC01EE57FE4F9491992309F46BC04423BC
:1005400009F454C050E0FA013197E231F10508F0A6
:100550004DC08827EE58FF4F8F4F85C38091800094
:100560008F7707C0809180008F7D03C080918000CD
:10057000877F809380003AC084B58F7702C084B5AE
:100580008F7D84BD33C08091B0008F7703C0809190
:10059000B0008F7D8093B00029C0809190008F774C
:1005A00007C0809190008F7D03C080919000877F6D
:1005B000809390001BC08091A0008F7707C080912E
:1005C000A0008F7D03C08091A000877F8093A00052
:1005D0000DC0809120018F7707C0809120018F7D11
:1005E00003C080912001877F80932001E92FF0E0F4
:1005F000EE0FFF1FE25BFE4FA591B4919FB7F894F9
:10060000311104C08C912095282302C0EC912E2B2F
:100610002C939FBF08953FB7F89480914702909123
:100620004802A0914902B0914A0226B5A89B05C094
:100630002F3F19F00196A11DB11D3FBFBA2FA92F61
:10064000982F8827820F911DA11DB11DBC01CD01DE
:1006500042E0660F771F881F991F4A95D1F70895CA
:10066000089580E090E00895CF93DF93009771F0B4
:10067000FC0101900020E9F73197AF01481B590BAD
:10068000BC018EE492E013DEEC0102C0C0E0D0E0D9
:1006900042E050E068E172E08EE492E008DE8C0F08
:1006A0009D1FDF91CF910895E7D41F920F920FB64F
:1006B0000F9211240BB60F922F933F934F935F939A
:1006C0006F937F938F939F93AF93BF93EF93FF931A
:1006D0008EE492E05CDEFF91EF91BF91AF919F912C
:1006E0008F917F916F915F914F913F912F910F90DB
:1006F0000BBE0F900FBE0F901F9018951F920F9278
:100700000FB60F9211240BB60F922F938F939F93D6
:10071000EF93FF93E0915E02F0915F028081E091A0
:100720006402F091650282FD12C09081809167029F
:100730008F5F8F7320916802821751F0E0916702FA
:10074000F0E0E25BFD4F958F8093670201C08081EE
:10075000FF91EF919F918F912F910F900BBE0F9072
:100760000FBE0F901F9018951F920F920FB60F9209
:1007700011242F933F938F939F93AF93BF938091B7
:10078000430290914402A0914502B09146023091FB
:10079000420223E0230F2D3720F40196A11DB11D45
:1007A00005C026E8230F0296A11DB11D2093420229
:1007B0008093430290934402A0934502B093460273
:1007C0008091470290914802A0914902B0914A025B
:1007D0000196A11DB11D8093470290934802A093FA
:1007E0004902B0934A02BF91AF919F918F913F917F
:1007F0002F910F900FBE0F901F9018951F920F9280
:100800000FB60F9211240F900FBE0F901F901895E6
:10081000EF92FF920F931F93CF93DF93EC01198216
:1008200018821B821A821D821C8261157105A1F13A
:100830007B01FB0101900020E9F731978F01061B36
:10084000170BB8016F5F7F4F80E090E035D30097C2
:1008500059F0998388831B830A832C813D81232B44
:1008600079F4FC0110820CC088819981009709F00D
:100870009AD2198218821D821C821B821A820CC095
:100880001D830C83B70188819981DF91CF911F91DE
:100890000F91FF90EF90FDC3DF91CF911F910F91CA
:1008A000FF90EF900895109251021092500288EE3E
:1008B00093E0A0E0B0E08093520290935302A093A3
:1008C0005402B09355028AE092E090934F028093D5
:1008D0004E0285EC90E090935B0280935A0284EC88
:1008E00090E090935D0280935C0280EC90E09093A6
:1008F0005F0280935E0281EC90E0909361028093AE
:10090000600282EC90E0909363028093620286EC36
:1009100090E09093650280936402109267021092B7
:1009200068021092690210926A026BE172E085E03F
:1009300094E06EDF6BE172E08FEF93E069DF6BE1D3
:1009400072E089EF93E064DF89E090E09093F60332
:100950008093F5038DDC60E08091F503DFDD88E0B6
:1009600087DC61E088E0DADD88E090E09093F803CE
:100970008093F7036DE172E081EC93E049DF6FE172
:1009800072E087EC93E044DF61E272E08DEC93E08B
:100990003FDF63E272E083ED93E03ADF65E272E00D
:1009A00089ED93E035DF67E272E08FED93E030DFB1
:1009B00060E372E085EE93E02BDF1092BE031092AD
:1009C000BD0380E290E09093FF028093FE028DE0F1
:1009D000809300031092060310920503ECEEF2E000
:1009E000119282E0EC3FF807D9F71092FD021092C5
:1009F000FC020895789484B5826084BD84B58160DA
:100A000084BD85B5826085BD85B5816085BD8091D9
:100A10006E00816080936E00109281008091810051
:100A20008260809381008091810081608093810049
:100A3000809180008160809380008091B10084600B
:100A40008093B1008091B00081608093B00080916C
:100A500091008260809391008091910081608093E9
:100A60009100809190008160809390008091A1001E
:100A700082608093A1008091A10081608093A10099
:100A80008091A00081608093A0008091210182600C
:100A900080932101809121018160809321018091C7
:100AA000200181608093200180917A00846080938E
:100AB0007A0080917A00826080937A0080917A0037
:100AC000816080937A0080917A00806880937A00B8
:100AD0001092C100FFB6F89480914B02811120C0A2
:100AE000E7EBF1E08491EDEFF1E09491E82FF0E095
:100AF000EE0FFF1FE859FE4FA591B491EC91E92349
:100B000019F461E085E30ADD85E3B2DB8CB5806131
:100B10008CBD8CB580648CBD84E3AADB83E3A8DB49
:100B200080914B028F5F80934B02FFBEE0915E028B
:100B3000F0915F0282E08083E0915A02F0915B02C3
:100B40001082E0915C02F0915D0283E38083109259
:100B50006602E0916202F091630286E08083E09198
:100B60006002F0916102808180618083E091600287
:100B7000F0916102808188608083E0916002F09151
:100B80006102808180688083E0916002F09161025F
:100B900080818F7D80838EE492E0E4DB1816190655
:100BA0003CF48EE492E0BCDB90934D0280934C02C7
:100BB00080914C0290914D028033910519F489E2A5
:100BC00092E005C08133910541F482E392E04CDD6F
:100BD00010924D0210924C0203C0865C9D4F44DD82
:100BE0001ADD6B017C0182E3882E912CA12CB12CA3
:100BF00012DDDC01CB018C199D09AE09BF09883ECD
:100C00009340A105B105A0F321E0821A9108A10843
:100C1000B10888EEC80E83E0D81EE11CF11C8114D7
:100C20009104A104B10421F741DCB5CFCF93DF9348
:100C3000CBEED3E0269788819981B5D083E0C13C83
:100C4000D807C1F78091F9039091FA03ACD0809155
:100C5000FF0390910004A7D08091050490910604B1
:100C6000DF91CF91A0C0EE0FFF1F881F8BBF0790B1
:100C7000F691E02D19940F931F93CF93DF93823059
:100C8000910510F482E090E0E0910D04F0910E04E3
:100C900020E030E0A0E0B0E0309719F140815181D0
:100CA0000281138148175907C8F08417950769F422
:100CB000109731F012960C93129713961C9327C03D
:100CC00000930D0410930E0422C02115310519F074
:100CD0004217530718F49A01BD01EF01DF01F80133
:100CE000DBCF21153105F9F0281B390B24303105F4
:100CF00080F48A819B816115710521F0FB0193834A
:100D0000828304C090930E0480930D04FE013296FA
:100D100044C0FE01E20FF31F8193919322503109E9
:100D2000398328833AC020910B0430910C04232B83
:100D300041F4209102023091030230930C0420937D
:100D40000B0420910002309101022115310541F47C
:100D50002DB73EB74091040250910502241B350B7C
:100D6000E0910B04F0910C04E217F307A0F42E1BA2
:100D70003F0B2817390778F0AC014E5F5F4F2417FF
:100D8000350748F04E0F5F1F50930C0440930B043F
:100D90008193919302C0E0E0F0E0CF01DF91CF9129
:100DA0001F910F910895CF93DF93009709F481C0AD
:100DB000FC01329713821282A0910D04B0910E04AF
:100DC000109781F420813181820F931F20910B04B1
:100DD00030910C042817390751F5F0930C04E09377
:100DE0000B0467C0ED0120E030E0CE17DF0740F4D0
:100DF0004A815B819E0141155105F1F0EA01F5CF71
:100E0000D383C28340815181840F951FC817D907AE
:100E100059F488819981840F951F0296918380836C
:100E20008A819B81938382832115310529F4F09374
:100E30000E04E0930D043DC0E901FB83EA83499170
:100E40005991C40FD51FEC17FD0761F48081918182
:100E5000840F951F0296E90199838883828193818B
:100E60009B838A83E0E0F0E012968D919C9113972A
:100E7000009719F0FD01DC01F7CF8D919C9111973E
:100E80009D012E5F3F4F820F931F20910B043091E5
:100E90000C042817390769F4309729F410920E04CE
:100EA00010920D0402C013821282B0930C04A0931E
:100EB0000B04DF91CF9108956F927F928F929F9252
:100EC000AF92BF92CF92DF92EF92FF920F931F9358
:100ED000CF93DF93009781F4CB01DF91CF911F91E6
:100EE0000F91FF90EF90DF90CF90BF90AF909F90C9
:100EF0008F907F906F90BFCEFC01E60FF71F9C0193
:100F000022503109E217F30708F4A5C0EC01D9011A
:100F10000D911C91119706171707A8F005301105C0
:100F200008F497C0C80104978617970708F491C082
:100F300002501109061B170B019311936D937C93BB
:100F4000CF0131DF86C05B01A01AB10A4C01800ECF
:100F5000911EA0910D04B0910E04612C712CE12C16
:100F6000F12C109709F446C08D919C911197A8150A
:100F7000B905B1F56C0142E0C40ED11CCA14DB0402
:100F800078F14C018A189B08640142E0C40ED11C20
:100F90001296BC9012971396AC91B5E0CB16D10483
:100FA00040F0B282A38391828082D9016D937C93B9
:100FB00009C00E5F1F4F800F911FF901918380833D
:100FC000EB2DFA2FE114F10431F0D7011396FC93C5
:100FD000EE9312973EC0F0930E04E0930D0439C0D7
:100FE0006816790608F43C017D0112960D90BC91BB
:100FF000A02DB7CF80910B0490910C048816990610
:10100000E1F466167706C8F480910002909101021F
:10101000009741F48DB79EB74091040250910502AC
:10102000841B950BE817F907B0F4F0930C04E093D8
:101030000B04F901718360830CC0CB011CDE7C01C1
:10104000009749F0A801BE011BD0CE01ACDEC7015C
:1010500004C0CE0102C080E090E0DF91CF911F91EB
:101060000F91FF90EF90DF90CF90BF90AF909F9047
:101070008F907F906F90089581E090E0F89410C079
:10108000FB01DC0102C001900D9241505040D8F7A5
:101090000895FB01DC0101900D920020E1F7089515
:1010A00011E0C8E0D1E000E005C0802FFE01DBDDEB
:1010B0002196011DC930D10780E00807B1F7F894E7
:0210C000FFCF60
:1010C20000000F04800000000000E90157018101C7
:1010D2003502B2019001A4010D0A0030005800410E
:1010E2000042004300440045004C45443A204F462C
:1010F20046004C45443A204F4E006563686F20001D
:00000001FF
