:100000001AC1000048C1000046C1000044C1000000
:1000100042C1000040C100003EC100003CC10000E0
:100020003AC1000007C5000005C5000003C5000077
:1000300032C1000030C100002EC100002CC1000000
:100040002AC1000028C1000026C1000024C1000010
:1000500022C1000020C100001EC10000A1C4000098
:100060001AC10000C7C100009CC1000014C10000FB
:1000700012C1000010C100000EC100000CC1000040
:100080000AC1000008C1000006C1000004C1000050
:1000900002C1000000C10000FEC00000FCC0000062
:1000A000FAC00000F8C00000F6C00000F4C0000074
:1000B000F2C00000F0C00000EEC00000ECC0000084
:1000C000EAC00000E8C00000E6C00000E4C0000094
:1000D000E2C00000E0C00000DEC00000DCC00000A4
:1000E000DAC0000028032B031A031E032203620355
:1000F0002F03330339033D03410347034B034F03EE
:100100006203550359035D039D03A203A703B103D3
:10011000BB033404C503CD03D503DF03E903F303B5
:1001200002040C043404160420042A0400000A0B00
:1001300002090C0D0E080703040100000000000076
:1001400000000000000000000000000000000000AF
:10015000000000000000000012111000000000006C
:10016000000000000000000000000000000000008F
:10017000000000002200250028002B002E00310086
:10018000340002010000050108010B0100002100FC
:10019000240027002A002D00300033000101000058
:1001A000040107010A0105050505070508080808F7
:1001B000020202020A0A08080404040401010101FF
:1001C00001010101030303030303030304070707FA
:1001D0000C0C0C0C0C0C0C0C02020202060606069F
:1001E000060606060B0B0B0B0B0B0B0B010210206C
:1001F000200808102040102040800201020108045D
:1002000002010102040810204080804020100804F0
:100210000201800402018040201008040201080449
:10022000020101020408102040800102040810208D
:1002300040801D0D070D11241FBECFEFD1E2DEBFA0
:10024000CDBF00E00CBF24E0ACE9B2E001C01D92DC
:10025000AC3BB207E1F712E0A0E0B2E0ECE1F1E282
:1002600000E00BBF02C007900D92AC39B107D9F77F
:1002700011E0CAE1D1E000E006C021970109802F1A
:10028000FE010E94320EC931D10780E00807A9F7AC
:10029000ACD70C947D10B4CEFC01538D448D252F2A
:1002A00030E0842F90E0821B930B541710F0CF9610
:1002B00008950197089583EB92E0F4D021E0892B13
:1002C00009F420E0822F0895EF92FF920F931F937D
:1002D000CF93DF93EC0181E0888F9B8D8C8D9813F9
:1002E00005C0E889F989808185FD25C0F62E0B8D32
:1002F00010E00F5F1F4F0F731127E02E8C8DE81257
:100300000BC00FB607FCFACFE889F989808185FF19
:10031000F5CFCE014CD1F2CF8B8DFE01E80FF11D50
:10032000E35AFF4FF0829FB7F8940B8FEA89FB895D
:10033000808180620AC09FB7F894EE89FF8960834C
:10034000E889F98980818370806480839FBF81E020
:1003500090E0DF91CF911F910F91FF90EF90089562
:10036000CF93DF93EC01888D8823C1F0EA89FB8964
:10037000808185FD05C0A889B9898C9186FD0EC054
:100380000FB607FCF5CF808185FFF2CFA889B98928
:100390008C9185FFEDCFCE010AD1E8CFDF91CF91CF
:1003A00008951F920F920FB60F9211240BB60F9261
:1003B0002F933F934F935F936F937F938F939F936D
:1003C000AF93BF93EF93FF9383EB92E0F0D0FF9155
:1003D000EF91BF91AF919F918F917F916F915F91BD
:1003E0004F913F912F910F900BBE0F900FBE0F902A
:1003F0001F9018951F920F920FB60F9211240BB6F3
:100400000F922F938F939F93EF93FF93E091C302EB
:10041000F091C4028081E091C902F091CA0282FD8C
:1004200012C090818091CC028F5F8F732091CD029A
:10043000821751F0E091CC02F0E0ED54FD4F958F22
:100440008093CC0201C08081FF91EF919F918F91A9
:100450002F910F900BBE0F900FBE0F901F9018950D
:10046000FC01918D828D981761F0828DDF01A80FBC
:10047000B11D5D968C91928D9F5F9F73928F90E0DE
:1004800008958FEF9FEF0895FC01918D828D98174D
:1004900031F0828DE80FF11D858D90E008958FEF8A
:1004A0009FEF0895FC01918D228D892F90E0805C53
:1004B0009F4F821B91098F739927089580E090E0E8
:1004C000892B19F0F8DE811125C080E090E0892B9E
:1004D00041F080E090E0892B21F00E940000811122
:1004E0001CC080E090E0892B41F080E090E0892BF7
:1004F00021F00E940000811113C080E090E0892B60
:10050000A1F080E090E0892B81F00E940000811131
:100510000AC008950E940000D8CF0E940000E1CFD9
:100520000E940000EACF0C94000008953FB7F894B1
:100530008091AF029091B002A091B102B091B2024D
:1005400026B5A89B05C02F3F19F00196A11DB11D2E
:100550003FBFBA2FA92F982F8827820F911DA11D69
:10056000B11DBC01CD0142E0660F771F881F991FA6
:100570004A95D1F70895089580E090E008950E948B
:100580003B1063E572E083EB92E01DD61092A70268
:100590001092A60208956DE472E083EB92E013D608
:1005A00081E090E09093A7028093A6020895FC0159
:1005B000848DDF01A80FB11DA35ABF4F2C91848DEC
:1005C00090E001968F739927848FA689B7892C9321
:1005D000A089B1898C91837080648C93938D848D74
:1005E000981306C00288F389E02D80818F7D808377
:1005F0000895362F90E0FC01E45DFE4F4491FC012C
:10060000E451FE4F2491FC01EA55FE4F9491992349
:1006100009F46CC0442309F455C050E0FA01319745
:10062000E231F10508F04EC08827EE58FF4F8F4F9A
:100630000C94320E809180008F7707C080918000EB
:100640008F7D03C080918000877F809380003AC0B7
:1006500084B58F7702C084B58F7D84BD33C080910F
:10066000B0008F7703C08091B0008F7D8093B00081
:1006700029C0809190008F7707C0809190008F7D76
:1006800003C080919000877F809390001BC0809171
:10069000A0008F7707C08091A0008F7D03C080915C
:1006A000A000877F8093A0000DC0809120018F77EC
:1006B00007C0809120018F7D03C080912001877F3A
:1006C00080932001E92FF0E0EE0FFF1FEE58FE4F60
:1006D000A591B4919FB7F894311104C08C912095E5
:1006E000282302C0EC912E2B2C939FBF08951F93BB
:1006F000CF93DF93182FEB0141D3209711F460E0E3
:1007000004C0CF3FD10531F461E0812FDF91CF915B
:100710001F916FCFE12FF0E0E45DFE4FE4918E2F4B
:1007200090E0FC013197E231F10508F09DC0882787
:10073000EC57FF4F8F4F0C94320E84B5806884BD08
:10074000C7BD97C084B5806284BDC8BD92C080918A
:100750008000806880938000D0938900C0938800D7
:1007600088C080918000806280938000D0938B004D
:10077000C0938A007EC08091800088608093800052
:10078000D0938D00C0938C0074C08091B0008068BD
:100790008093B000C093B3006CC08091B0008062C1
:1007A0008093B000C093B40064C0809190008068D2
:1007B00080939000D0939900C09398005AC0809184
:1007C0009000806280939000D0939B00C0939A0029
:1007D00050C080919000886080939000D0939D00DD
:1007E000C0939C0046C08091A00080688093A000C8
:1007F0008091A0008F7B8093A000D093A900C0932C
:10080000A80037C08091A00080628093A000D093A0
:10081000AB00C093AA002DC08091A0008860809397
:10082000A000D093AD00C093AC0023C08091200104
:10083000806880932001D0932901C093280119C0BA
:1008400080912001806280932001D0932B01C0937E
:100850002A010FC080912001886080932001D093ED
:100860002D01C0932C0105C0C038D1050CF04CCF30
:1008700046CFDF91CF911F9108951F93CF93DF93C0
:10088000182FC6E1D2E0112319F060E870E002C031
:1008900060E070E088812BDF219682E0CB31D807C1
:1008A00091F7DF91CF911F910895AF92BF92CF92B0
:1008B000DF92FF920F931F93CF93DF936C010BE1B5
:1008C00012E0C0E0D0E05C0181E0A81AB108F801B4
:1008D000F0800E5F1F4F62EF70E08F2D08DFFFEF9B
:1008E000CF16DF0619F0CA15DB0529F462EF70E0B8
:1008F0008F2DFDDE03C060E08F2D7BDE2196C4309E
:10090000D10529F7DF91CF911F910F91FF90DF90D3
:10091000CF90BF90AF9008958F929F92AF92BF9269
:10092000CF92DF92EF92FF926B017C01FFDD4B01D2
:100930005C01C114D104E104F104E9F0F7DDDC014C
:10094000CB0188199909AA09BB09883E9340A105E2
:10095000B10578F321E0C21AD108E108F10888EE68
:10096000880E83E0981EA11CB11CC114D104E104BF
:10097000F10421F7DECFFF90EF90DF90CF90BF9092
:10098000AF909F908F9008952FB7F8946091AB022D
:100990007091AC028091AD029091AE022FBF08958C
:1009A0001F920F920FB60F9211242F933F938F93A4
:1009B0009F93AF93BF938091AB029091AC02A091B3
:1009C000AD02B091AE023091AA0223E0230F2D3781
:1009D00020F40196A11DB11D05C026E8230F029643
:1009E000A11DB11D2093AA028093AB029093AC028B
:1009F000A093AD02B093AE028091AF029091B0028D
:100A0000A091B102B091B2020196A11DB11D8093D7
:100A1000AF029093B002A093B102B093B202BF9123
:100A2000AF919F918F913F912F910F900FBE0F909B
:100A30001F9018951F920F920FB60F9211240F90CE
:100A40000FBE0F901F9018958EBD00000DB407FECD
:100A5000FDCF8EB50895CF93DF93C091A602D091BC
:100A6000A702CE3F8FEFD80731F480E090E01DDF82
:100A700080E003DF10C0CF3F8FEFD80739F48FEF4E
:100A80009FEF13DF81E0DF91CF91F7CE209719F42C
:100A900081E0F3DE2DC080E0F0DE8091A402909131
:100AA000A50283369105A4F01092A5021092A4022B
:100AB0002196C530D1052CF4D093A702C093A6028D
:100AC0000CC081E090E09093A7028093A60205C03D
:100AD000C2969093A5028093A4028091A402909163
:100AE000A5024E972CF48091A6029091A70202C015
:100AF00080E090E0DF91CF91D8CE66E772E083EBA3
:100B000092E061D341E050E064E772E086EA94E06D
:100B1000B2D28FEF9FEF9093A7028093A6029BDF44
:100B200068EC70E080E090E0F7DE1092A70210928F
:100B3000A6020895EF92FF920F931F93CF93DF9336
:100B400000D000D0CDB7DEB78C01FC01E480F58089
:100B50008091B0049091B1048E159F0539F4B801CD
:100B60008CEA94E027D2892B09F440C08091AA0432
:100B70009091AB04E816F90631F4B80186EA94E0E6
:100B800019D2892B49F11A8219821C821B821E827A
:100B90001D82B801CE0101968DD28D819E81892B57
:100BA00011F1E980FA8064E772E0C7010E945010F9
:100BB000892BB9F062E772E0C7010E945010FF2450
:100BC000F394892B71F0CE01019689D2FF2021F098
:100BD000B80186EA94E06ED2B8018CEA94E06AD259
:100BE00005C0F12CF0CFFF24F394EDCF26960FB67D
:100BF000F894DEBF0FBECDBFDF91CF911F910F9153
:100C0000FF90EF900895CF93DF9300D000D0CDB741
:100C1000DEB762E872E0CE01019665D262EB74E065
:100C2000CE010196F7D188D06CEA74E0F3D184D07C
:100C300066EA74E0EFD1FC014481558160817181E5
:100C400083EB92E016D064E472E083EB92E05FD233
:100C5000CE01019644D269E872E083EB92E0B3D210
:100C600026960FB6F894DEBF0FBECDBFDF91CF91B1
:100C70000895CF92DF92EF92FF920F931F93CF933D
:100C8000DF936C017A018B01C0E0D0E0CE15DF0567
:100C900081F0D8016D918D01D601ED91FC9101900B
:100CA000F081E02DC6011995892B11F02196EECF28
:100CB0007E01C701DF91CF911F910F91FF90EF90BF
:100CC000DF90CF9008950F931F93CF93DF93EC01A4
:100CD00088819981009729F02A813B81261737075F
:100CE00088F48B016F5F7F4F0E945B0F009761F06C
:100CF000998388831B830A832C813D81232B11F4E4
:100D0000FC01108281E001C080E0DF91CF911F9152
:100D10000F910895CF93DF93EC018881998100971B
:100D200011F00E94D20E198218821D821C821B8231
:100D30001A82DF91CF9108950F931F93CF93DF9382
:100D4000EC010C811D810F5F1F4FB801BCDF8823B0
:100D500069F0288139818C819D8169E972E0820F77
:100D6000931F0E9459101D830C8302C0CE01D2DF55
:100D7000CE01DF91CF911F910F91089590E0FC017A
:100D8000E451FE4F2491FC01EA55FE4F84918823E3
:100D900099F090E0880F991FFC01E457FE4FA59150
:100DA000B491FC01EE58FE4F859194918FB7F89461
:100DB000EC91E22BEC938FBF08950F931F93CF9389
:100DC000DF93C82FD62F08E914E060E0F801828590
:100DD00010DC8C2F880F8E7737DE8D2F35DE61E0AB
:100DE000F8018285DF91CF911F910F9102CC0F9373
:100DF0001F93CF93C82F08E914E060E0F8018285C3
:100E0000F8DB8C2F880F8E7780681EDE80E01CDE7A
:100E1000C82F61E0F8018285ECDB8C2FCF911F9108
:100E20000F910895CF93DF93D82FC62FE0DF682F5F
:100E30006C2B8D2FDF91CF91C0CFAF92BF92CF920D
:100E4000DF92EF92FF920F931F93CF93DF935C019A
:100E5000C62E8A01E90167EF82E0AFDF84E0C7DFD9
:100E6000682F6F7784E0A9DF60E88AE0DBDF60E06D
:100E700081E0A3DF7501D12CC7018A199B098C156C
:100E80009D0530F4F70161917F0189E096DFF4CF91
:100E90006CE081E092DF60E88DE0C4DF60EDC62E9B
:100EA00067E0D62E84E0A3DFE82EF1E0CF1AD10868
:100EB00011F08173B9F38DE09ADF682F6F778DE0C1
:100EC0007CDFCD2809F43AC086E091DF8B71B1F563
:100ED0008E2D8170E82E8AE08ADFF82E8CE087DF85
:100EE00087702F2D30E051F02150310953E0220F4F
:100EF000331F5A95E1F7280F311D05C043E0220F3B
:100F0000331F4A95E1F739832883FF2031F0E0E170
:100F1000EF1528F490E1F92E02C0FF24F394680144
:100F2000CF2DD0E0C601801B910B8C179D0740F49C
:100F300089E05DDFF60181936F01F4CF82E0E82E56
:100F40008E2DDF91CF911F910F91FF90EF90DF9049
:100F5000CF90BF90AF9008951F93CF93DF932091D0
:100F6000B2033091B3032A30310504F5EB01BC0123
:100F700012E1129FC001139F900D112440E150E037
:100F80008C549C4F0E946E108091B2039091B303D9
:100F9000189FF001199FF00D1124E856FC4FD5A7BA
:100FA000C4A701969093B3038093B203DF91CF91CE
:100FB0001F910895CF93DF93DC01ED91FC91EB013C
:100FC000A881B981309711F01097C9F4109759F0A2
:100FD000EB012C813D81232B31F08C9190E0919598
:100FE0008195910914C0309781F0DC0114968D91A0
:100FF0009C911597892B49F0808190E008C0BD0134
:10100000CF01DF91CF910C94501080E090E0DF9100
:10101000CF910895EF92FF920F931F93CF93DF9399
:10102000EC01FB0104811581E080F180E114F10401
:10103000C1F001151105B9F08C819D81080F191FB0
:10104000B801CE0140DE882361F0288139818C818E
:101050009D81B701820F931F0E9459101D830C833D
:1010600002C0CE0157DECE01DF91CF911F910F91CB
:10107000FF90EF900895EF92FF920F931F93CF93FD
:10108000DF93EC017B018A01BA011DDE811103C0EF
:10109000CE0140DE07C01D830C83B7018881998192
:1010A0000E945910CE01DF91CF911F910F91FF90B7
:1010B000EF900895CF93DF93EC01FB01861797071C
:1010C00051F0608171816115710521F04481558174
:1010D000D2DF01C01FDECE01DF91CF910895FC0168
:1010E000808191815FC6FC0111821082138212827D
:1010F000158214826115710549F0FB0101900020F1
:10110000E9F73197AF01461B570BB5CF089561152D
:10111000710579F0FB0101900020E9F73197AF01EB
:10112000461B570BDC01ED91FC910280F381E02D11
:10113000199480E090E008958F929F92AF92BF92B1
:10114000EF92FF920F931F93CF93DF93CDB7DEB74C
:10115000A1970FB6F894DEBF0FBECDBF7C01FA0198
:10116000CB0119A2223008F42AE08E010F5D1F4F37
:10117000822E912CA12CB12CBF01A501940150D538
:10118000F901CA01015011096A3014F4605D01C00F
:10119000695CD8016C93232B242B252B69F7B801AC
:1011A000C701B5DFA1960FB6F894DEBF0FBECDBF65
:1011B000DF91CF911F910F91FF90EF90BF90AF9073
:1011C0009F908F9008950F931F93CF93DF93EC011F
:1011D0009EDF8C0164E472E0CE0199DF800F911FE5
:1011E000DF91CF911F910F910895CF93DF93CDB7EA
:1011F000DEB762970FB6F894DEBF0FBECDBF78940E
:1012000084B5826084BD84B5816084BD85B582600B
:1012100085BD85B5816085BD80916E0081608093BC
:101220006E00109281008091810082608093810025
:101230008091810081608093810080918000816035
:10124000809380008091B10084608093B100809190
:10125000B00081608093B0008091910082608093A3
:101260009100809191008160809391008091900025
:101270008160809390008091A10082608093A100A2
:101280008091A10081608093A1008091A000816085
:101290008093A00080912101826080932101809140
:1012A00021018160809321018091200181608093E0
:1012B000200180917A00846080937A0080917A0086
:1012C000826080937A0080917A00816080937A00B6
:1012D00080917A00806880937A001092C100109209
:1012E0009403109295031092960310929703109214
:1012F000520310925303109254031092550344DB8F
:101300006B017C014B015C0128EB820E2BE0921EED
:10131000A11CB11C39DB6C157D058E059F0528F0DD
:1013200086169706A806B906A8F783EB92E0909375
:10133000930380939203E091C302F091C40282E090
:101340008083E091BF02F091C0021082E091C1025F
:10135000F091C20280E180831092CB02E091C7023B
:10136000F091C80286E08083E091C502F091C60248
:10137000808180618083E091C502F091C602808106
:1013800088608083E091C502F091C6028081806808
:101390008083E091C502F091C60280818F7D8083B9
:1013A000F3DA609352037093530380935403909342
:1013B000550365E372E08091920390919303A7DE59
:1013C000E3DA6B017C014B015C018AE0880E911C21
:1013D000A11CB11CD9DA6C157D058E059F0528F07E
:1013E00086169706A806B906A8F781E080936603DB
:1013F0001FB7F89480919C02811120C0EBEDF1E0C1
:101400008491E1E2F2E09491E82FF0E0EE0FFF1F0B
:10141000E457FE4FA591B491EC91E92319F461E0F2
:1014200085E3E7D885E3AADC8CB580618CBD8CB5FB
:1014300080648CBD84E3A2DC83E3A0DC80919C0209
:101440008F5F80939C021FBF8DE098DC61E08091EC
:10145000A404CFD86FE081E0B0DC6DE88AE2ADDCB7
:101460006EE38BE2AADC6EE18DE2A7DC60E08CE249
:10147000A4DC60E485E1A1DC6DE381E19EDC84E134
:10148000B6DC837019F463E084E1CCDCE091C30244
:10149000F091C40282E08083E091BF02F091C0022B
:1014A0001082E091C102F091C2028FEC8083109211
:1014B000CB02E091C702F091C80286E08083E09100
:1014C000C502F091C602808180618083E091C502EF
:1014D000F091C602808188608083E091C502F0911E
:1014E000C602808180688083E091C502F091C602C7
:1014F00080818F7D808363E076E087E492E02CDD5D
:101500006BEC72E08DE492E027DD61EC72E083E544
:1015100092E022DD6DE775E088E592E01DDD8DE06B
:101520002DDC34EF432E55245394612C712C46E06E
:10153000242E52E1352E28DA672B682B692B39F4DB
:1015400023DA623071058105910508F4F6C01CDAD2
:101550000091A0021091A1022091A2023091A30259
:10156000601771078207930740F46093A00270939D
:10157000A1028093A2029093A3020091A002109175
:10158000A1022091A2023091A3026B017C01C01A3A
:10159000D10AE20AF30A970186010A3F11052105E3
:1015A000310508F4CAC06093A0027093A102809331
:1015B000A2029093A30240925E0350925F03609256
:1015C00060037092610310926203109263031092A1
:1015D0006403109265038091560390915703A09184
:1015E0005803B091590380935A0390935B03A093DF
:1015F0005C03B0935D03C8D960935603709357039F
:101600008093580390935903BFD96093520370930A
:1016100053038093540390935503B6D96B017C0117
:101620006EE572E0809192039091930370DD2AE061
:1016300041E050E060E070E080919203909193036C
:101640007BDD65E672E080919203909193035FDD0C
:101650002AE0B701A60180919203909193036CDD7B
:1016600067E672E0809192039091930350DD809140
:10167000560390915703A0915803B0915903B701B5
:10168000A601481B590B6A0B7B0B2AE08091920341
:101690009091930351DD67E672E0809192039091FF
:1016A000930335DD409156035091570360915803E1
:1016B0007091590380915A0390915B03A0915C0350
:1016C000B0915D03481B590B6A0B7B0B2AE080919C
:1016D00092039091930330DD69E672E0809192036A
:1016E0009091930314DD50D9AB01BC012AE08091A5
:1016F00092039091930320DD6BE672E08091920358
:101700009091930360DD40D94B015C016B017C013A
:1017100025E0C20ED11CE11CF11C36D968157905F3
:101720008A059B0508F0CEC02FD9609356037093AD
:101730005703809358039093590380919F0291E03F
:10174000892780939F02882311F061E001C060E047
:101750008DE00E94F90267E08DE02FDBA6E2A9830D
:101760009E012F5E3F4FAE014F5F5F4F61E0CA01A8
:1017700064DB81115DC089899A89409709F058C05E
:1017800010929E0210929D0260E08DE016DBB3E99C
:10179000B98320E2C22ECA829E012F5E3F4FAE0166
:1017A0004F5F5F4F62E0CA0148DB85E0FE01319682
:1017B000A8E9B4E001900D928A95E1F78091980430
:1017C00090E020910002309101028217930709F402
:1017D0004EC09093010280930002E8E0F2E020E026
:1017E00030E0419151918417950789F41A8219824A
:1017F0001C821B821E821D82229EB001239E700DC0
:10180000112462597B4FCE01019654DC0AC02F5F30
:101810003F4F2730310529F762E772E0CE0101968C
:1018200062DCCE01019686D9CE01019658DC1FC03C
:1018300080919D0290919E028330910534F401962F
:1018400090939E0280939D0212C064E772E0CE01E5
:10185000019649DCCE0101966DD9CE0101963FDC9F
:10186000EE24EA94FE2CF0920102E092000283EB57
:1018700092E00E945202181619065CF580916A04E3
:1018800090916B04892B39F080916A0490916B04DC
:10189000019749F01EC083EB92E00E945202181695
:1018A000190604F1F1CF80916C0490916D04DC0174
:1018B000ED91FC910084F185E02D1995181619061B
:1018C0008CF007C0C616D706E806F90608F025CF43
:1018D0002BCFC1D862E370E080E090E01DD80E9479
:1018E0005E0229CE80916A0490916B04892B29F4C1
:1018F00083EB92E00E9430020BC080916C049091C7
:101900006D04DC01ED91FC910284F385E02D1995C5
:1019100080939803909198038091AD03981344C0ED
:101920001092AA031092A90340EB53E06BEA73E014
:1019300089E993E04BD16C019093AF038093AE03A0
:10194000892B39F28090B2039090B30384EBE82E98
:1019500083E0F82E00E010E0081519050CF04AC0ED
:1019600040E150E0B701C601ABD3B2E1EB0EF11C90
:10197000892BB9F4309EF001319EF00D1124E85608
:10198000FC4F04A4F5A5E02D1995E9E9F3E01192C7
:1019900023E0E93AF207D9F71092AA031092A903BB
:1019A00003C00F5F1F4FD8CF10919803812F012ED6
:1019B000000C990B66D3892B09F460CF8091A903A1
:1019C0009091AA039C012F5F3F4F3093AA0320936D
:1019D000A903FC01E856FC4F1183F901E856FC4FBE
:1019E0001182203131050CF449CF1092AA031092D4
:1019F000A90344CFE0916804F09169041995E9E9DD
:101A0000F3E0119283E0E93AF807D9F7C5CFCF9315
:101A1000DF93C8E9D4E02697CE0161DB84E0CE36BF
:101A2000D807C9F786EA94E05ADB8CEA94E057DBE2
:101A300082EB94E0DF91CF9152CB1092B6021092DC
:101A4000B50288EE93E0A0E0B0E08093B7029093F7
:101A5000B802A093B902B093BA0287E292E09093E1
:101A6000B4028093B30285EC90E09093C00280931F
:101A7000BF0284EC90E09093C2028093C10280EC9C
:101A800090E09093C4028093C30281EC90E0909325
:101A9000C6028093C50282EC90E09093C8028093C6
:101AA000C70286EC90E09093CA028093C90210921C
:101AB000CC021092CD021092CE021092CF02109260
:101AC0005603109257031092580310925903109224
:101AD0005A0310925B0310925C0310925D03109204
:101AE0005E0310925F0310926003109261031092E4
:101AF000620310926303109264031092650364E71B
:101B000072E082EB94E0EFDA64E772E08CEA94E052
:101B1000EADA64E772E086EA94E0E5DA89E090E0E8
:101B20009093A3048093A20429D960E08091A20439
:101B30000E94F90288E022D961E088E00E94F9025F
:101B400088E090E09093A5048093A4046DE872E08F
:101B50008EE694E0C8DA6FE872E084E794E0C3DAD6
:101B600061E972E08AE794E0BEDA63E972E080E856
:101B700094E0B9DA65E972E086E894E0B4DA60E707
:101B800072E08CE894E0AFDA67E972E082E994E011
:101B9000AADA10926B0410926A0480E290E09093AB
:101BA000AC038093AB038DE08093AD031092B3033D
:101BB0001092B203E9E9F3E0119283E0E93AF80701
:101BC000D9F71092AA031092A9030895FA01A191DE
:101BD000B081009719F41097E1F0CD01DC01CD013F
:101BE0000D90002011F4C00113C0FB0121912223AC
:101BF00019F02015D9F7F3CFFB012191201519F425
:101C00001E92119606C02223C1F70D900020A1F765
:101C1000D001FA01A193B0830895992788270895E8
:101C2000A1E21A2EAA1BBB1BFD010DC0AA1FBB1FE0
:101C3000EE1FFF1FA217B307E407F50720F0A21B52
:101C4000B30BE40BF50B661F771F881F991F1A94BF
:101C500069F760957095809590959B01AC01BD01E9
:101C6000CF010895EE0FFF1F881F8BBF0790F691DD
:101C7000E02D19940F931F93CF93DF93823091053A
:101C800010F482E090E0E091BA04F091BB0420E00F
:101C900030E0A0E0B0E0309719F14081518102813D
:101CA000138148175907C8F08417950769F41097EE
:101CB00031F012960C93129713961C9327C0009341
:101CC000BA041093BB0422C02115310519F0421744
:101CD000530718F49A01BD01EF01DF01F801DBCFD2
:101CE00021153105F9F0281B390B2430310580F41A
:101CF0008A819B816115710521F0FB0193838283A9
:101D000004C09093BB048093BA04FE01329644C091
:101D1000FE01E20FF31F8193919322503109398321
:101D200028833AC02091B8043091B904232B41F4A0
:101D300020910402309105023093B9042093B80435
:101D400020910202309103022115310541F42DB793
:101D50003EB74091060250910702241B350BE091DB
:101D6000B804F091B904E217F307A0F42E1B3F0B5F
:101D70002817390778F0AC014E5F5F4F24173507FD
:101D800048F04E0F5F1F5093B9044093B8048193FD
:101D9000919302C0E0E0F0E0CF01DF91CF911F917D
:101DA0000F910895CF93DF93009709F481C0FC0150
:101DB000329713821282A091BA04B091BB0410979B
:101DC00081F420813181820F931F2091B8043091DA
:101DD000B9042817390751F5F093B904E093B80412
:101DE00067C0ED0120E030E0CE17DF0740F44A8104
:101DF0005B819E0141155105F1F0EA01F5CFD383D6
:101E0000C28340815181840F951FC817D90759F4A7
:101E100088819981840F951F0296918380838A819E
:101E20009B81938382832115310529F4F093BB04B0
:101E3000E093BA043DC0E901FB83EA8349915991DB
:101E4000C40FD51FEC17FD0761F480819181840FC9
:101E5000951F0296E90199838883828193819B83F0
:101E60008A83E0E0F0E012968D919C9113970097A1
:101E700019F0FD01DC01F7CF8D919C9111979D0127
:101E80002E5F3F4F820F931F2091B8043091B90409
:101E90002817390769F4309729F41092BB0410927F
:101EA000BA0402C013821282B093B904A093B8049A
:101EB000DF91CF9108956F927F928F929F92AF9210
:101EC000BF92CF92DF92EF92FF920F931F93CF9327
:101ED000DF93009781F4CB01DF91CF911F910F9198
:101EE000FF90EF90DF90CF90BF90AF909F908F903A
:101EF0007F906F90BFCEFC01E60FF71F9C01225030
:101F00003109E217F30708F4A5C0EC01D9010D91DE
:101F10001C91119706171707A8F00530110508F452
:101F200097C0C80104978617970708F491C002501C
:101F30001109061B170B019311936D937C93CF012D
:101F400031DF86C05B01A01AB10A4C01800E911EE0
:101F5000A091BA04B091BB04612C712CE12CF12C3E
:101F6000109709F446C08D919C911197A815B90559
:101F7000B1F56C0142E0C40ED11CCA14DB0478F147
:101F80004C018A189B08640142E0C40ED11C1296D1
:101F9000BC9012971396AC91B5E0CB16D10440F0EB
:101FA000B282A38391828082D9016D937C9309C010
:101FB0000E5F1F4F800F911FF90191838083EB2DDE
:101FC000FA2FE114F10431F0D7011396FC93EE934C
:101FD00012973EC0F093BB04E093BA0439C0681670
:101FE000790608F43C017D0112960D90BC91A02D5C
:101FF000B7CF8091B8049091B90488169906E1F49E
:1020000066167706C8F48091020290910302009749
:1020100041F48DB79EB74091060250910702841B90
:10202000950BE817F907B0F4F093B904E093B804FE
:10203000F901718360830CC0CB011CDE7C01009729
:1020400049F0A801BE0123D0CE01ACDEC70104C017
:10205000CE0102C080E090E0DF91CF911F910F91FF
:10206000FF90EF90DF90CF90BF90AF909F908F90B8
:102070007F906F90089581E090E0F8943EC08032A8
:1020800009F09111CACD80528F55E0F70895FB01F8
:10209000DC0102C001900D9241505040D8F70895E4
:1020A000FB01DC018D91019080190110D9F3990B8E
:1020B0000895FB01DC0101900D920020E1F70895E5
:1020C000FB01DC014150504030F08D9101908019AE
:1020D00019F40020B9F7881B990B0895FB01DC0166
:1020E0004150504048F001900D920020C9F701C0C6
:1020F0001D9241505040E0F7089511E0CAE1D1E04F
:1021000000E005C0802FFE01ADDD2196011DCB3121
:0C211000D10780E00807B1F7F894FFCF7A
:10211C00FFFF0000BC04800090004A00A2002100D8
:10212C00F1000B00F900363738393A040005000687
:10213C0000070000000000640139064C01B0015298
:10214C000230024402564D4450565F317C315F568A
:10215C004D4450560D0A00737461746500737461BC
:10216C0072740073746F7000726573657400564DF1
:10217C004450455F003A323A007C005F564D445063
:10218C0045003F003000726573657420726F6269A0
:10219C006E0073746174653A00454F4D00580041F0
:0C21AC000042004300440046002F0000E9
:00000001FF
