:100000001AC1000048C1000046C1000044C1000000
:1000100042C1000040C100003EC100003CC10000E0
:100020003AC10000C6C50000C4C50000C2C500003A
:1000300032C1000030C100002EC100002CC1000000
:100040002AC1000028C1000026C1000024C1000010
:1000500022C1000020C100001EC1000060C50000D8
:100060001AC100002DC3000002C3000014C100002B
:1000700012C1000010C100000EC100000CC1000040
:100080000AC1000008C1000006C1000004C1000050
:1000900002C1000000C10000FEC00000FCC0000062
:1000A000FAC00000F8C00000F6C00000F4C0000074
:1000B000F2C00000F0C00000EEC00000ECC0000084
:1000C000EAC00000E8C00000E6C00000E4C0000094
:1000D000E2C00000E0C00000DEC00000DCC00000A4
:1000E000DAC00000C503C803B703BB03BF03FF03A7
:1000F000CC03D003D603DA03DE03E403E803EC0306
:10010000FF03F203F603FA0339043E0443044D04EB
:100110005704D0046104690471047B0485048F04CE
:100120009E04A804D004B204BC04C60400000A0B58
:1001300002090C0D0E080703040100000000000076
:1001400000000000000000000000000000000000AF
:10015000000000000000000012111000000000006C
:10016000000000000000000000000000000000008F
:10017000000000002200250028002B002E00310086
:10018000340002010000050108010B0100002100FC
:10019000240027002A002D00300033000101000058
:1001A000040107010A0105050505070508080808F7
:1001B000020202020A0A08080404040401010101FF
:1001C00001010101030303030303030304070707FA
:1001D0000C0C0C0C0C0C0C0C02020202060606069F
:1001E000060606060B0B0B0B0B0B0B0B010210206C
:1001F000200808102040102040800201020108045D
:1002000002010102040810204080804020100804F0
:100210000201800402018040201008040201080449
:10022000020101020408102040800102040810208D
:100230004080120B820811241FBECFEFD1E2DEBF37
:10024000CDBF00E00CBF24E0AAE7B2E001C01D92E0
:10025000AE34B207E1F712E0A0E0B2E0EEE7FCE175
:1002600000E00BBF02C007900D92AA37B107D9F783
:1002700011E0CAE1D1E000E006C021970109802F1A
:10028000FE010E94E30BC931D10780E00807A9F7FE
:100290004FD70C942E0EB4CEFC01538D448D252FD8
:1002A00030E0842F90E0821B930B541710F0CF9610
:1002B000089501970895FC01918D828D981761F042
:1002C000828DDF01A80FB11D5D968C91928D9F5F8D
:1002D0009F73928F90E008958FEF9FEF0895FC0138
:1002E000918D828D981731F0828DE80FF11D858DEB
:1002F00090E008958FEF9FEF0895FC01918D228D7E
:10030000892F90E0805C9F4F821B91098F73992702
:1003100008958DE892E0F1DF21E0892B09F420E0D7
:10032000822F0895FC01848DDF01A80FB11DA35A0F
:10033000BF4F2C91848D90E001968F739927848F05
:10034000A689B7892C93A089B1898C918370806428
:100350008C93938D848D981306C00288F389E02DC9
:1003600080818F7D80830895EF92FF920F931F937A
:10037000CF93DF93EC0181E0888F9B8D8C8D981358
:1003800005C0E889F989808185FD25C0F62E0B8D91
:1003900010E00F5F1F4F0F731127E02E8C8DE812B6
:1003A0000BC00FB607FCFACFE889F989808185FF79
:1003B000F5CFCE01B7DFF2CF8B8DFE01E80FF11D37
:1003C000E35AFF4FF0829FB7F8940B8FEA89FB89BD
:1003D000808180620AC09FB7F894EE89FF896083AC
:1003E000E889F98980818370806480839FBF81E080
:1003F00090E0DF91CF911F910F91FF90EF900895C2
:10040000CF93DF93EC01888D8823C1F0EA89FB89C3
:10041000808185FD05C0A889B9898C9186FD0EC0B3
:100420000FB607FCF5CF808185FFF2CFA889B98987
:100430008C9185FFEDCFCE0175DFE8CFDF91CF91B5
:10044000089580E090E0892B19F063DF811125C0C9
:1004500080E090E0892B41F080E090E0892B21F052
:100460000E94000081111CC080E090E0892B41F0C7
:1004700080E090E0892B21F00E940000811113C0E0
:1004800080E090E0892BA1F080E090E0892B81F062
:100490000E94000081110AC008950E940000D8CF78
:1004A0000E940000E1CF0E940000EACF0C940000FF
:1004B00008953FB7F8948091850290918602A091AB
:1004C0008702B091880226B5A89B05C02F3F19F07E
:1004D0000196A11DB11D3FBFBA2FA92F982F8827C4
:1004E000820F911DA11DB11DBC01CD0142E0660F1F
:1004F000771F881F991F4A95D1F708958F929F9271
:10050000AF92BF92CF92DF92EF92FF926B017C018C
:10051000D0DF4B015C01C114D104E104F104E9F026
:10052000C8DFDC01CB0188199909AA09BB09883EFB
:100530009340A105B10578F321E0C21AD108E10882
:10054000F10888EE880E83E0981EA11CB11CC1142E
:10055000D104E104F10421F7DECFFF90EF90DF90AA
:10056000CF90BF90AF909F908F900895089580E0B6
:1005700090E0089585E392E0C5D381E090E0909308
:100580007D0280937C0208958BE392E0BBD31092AE
:100590007D0210927C0208950E94EC0DEF92FF9272
:1005A0000F931F93CF93DF9300D000D0CDB7DEB76A
:1005B0008C01FC01E480F580809142049091430419
:1005C0008E159F0539F4B8018EE394E0F1D4892BA0
:1005D00009F440C080913C0490913D04E816F9066E
:1005E00031F4B80188E394E0E3D4892B49F11A820D
:1005F00019821C821B821E821D82B801CE010196C7
:1006000054D58D819E81892B11F1E980FA8060E4B7
:1006100072E0C7010E94010E892BB9F062E472E01A
:10062000C7010E94010EFF24F394892B71F0CE01C3
:10063000019650D5FF2021F0B80188E394E035D52C
:10064000B8018EE394E031D505C0F12CF0CFFF2442
:10065000F394EDCF26960FB6F894DEBF0FBECDBF54
:10066000DF91CF911F910F91FF90EF9008951F920E
:100670000F920FB60F9211240BB60F922F933F9348
:100680004F935F936F937F938F939F93AF93BF939A
:10069000EF93FF938DE892E045DEFF91EF91BF91DC
:1006A000AF919F918F917F916F915F914F913F910A
:1006B0002F910F900BBE0F900FBE0F901F901895AB
:1006C0001F920F920FB60F9211240BB60F922F9319
:1006D0008F939F93EF93FF93E0919D02F0919E0281
:1006E0008081E091A302F091A40282FD12C090816A
:1006F0008091A6028F5F8F732091A702821751F01D
:10070000E091A602F0E0E357FD4F958F8093A6029B
:1007100001C08081FF91EF919F918F912F910F9058
:100720000BBE0F900FBE0F901F901895362F90E0C4
:10073000FC01E45DFE4F4491FC01E451FE4F249125
:10074000FC01EA55FE4F9491992309F46CC04423AF
:1007500009F455C050E0FA013197E231F10508F093
:100760004EC08827EE58FF4F8F4F0C94E30B8091BB
:1007700080008F7707C0809180008F7D03C08091BB
:100780008000877F809380003AC084B58F7702C055
:1007900084B58F7D84BD33C08091B0008F7703C056
:1007A0008091B0008F7D8093B00029C0809190002F
:1007B0008F7707C0809190008F7D03C0809190005B
:1007C000877F809390001BC08091A0008F7707C027
:1007D0008091A0008F7D03C08091A000877F8093CF
:1007E000A0000DC0809120018F7707C0809120016B
:1007F0008F7D03C080912001877F80932001E92FA6
:10080000F0E0EE0FFF1FEE58FE4FA591B4919FB799
:10081000F894311104C08C912095282302C0EC91EA
:100820002E2B2C939FBF08951F93CF93DF93182FE8
:10083000EB01A3D2209711F460E004C0CF3FD105B3
:1008400031F461E0812FDF91CF911F916FCFE12FC4
:10085000F0E0E45DFE4FE4918E2F90E0FC013197D3
:10086000E231F10508F09CC08827EC57FF4F8F4F0D
:10087000AAC784B5806884BDC7BD97C084B58062AF
:1008800084BDC8BD92C08091800080688093800044
:10089000D0938900C093880088C0809180008062D6
:1008A00080938000D0938B00C0938A007EC080919B
:1008B0008000886080938000D0938D00C0938C006E
:1008C00074C08091B00080688093B000C093B30082
:1008D0006CC08091B00080628093B000C093B4007F
:1008E00064C080919000806880939000D0939900BC
:1008F000C09398005AC080919000806280939000CD
:10090000D0939B00C0939A0050C080919000886063
:1009100080939000D0939D00C0939C0046C080912E
:10092000A00080688093A0008091A0008F7B8093BE
:10093000A000D093A900C093A80037C08091A00068
:1009400080628093A000D093AB00C093AA002DC01A
:100950008091A00088608093A000D093AD00C093E8
:10096000AC0023C080912001806880932001D09347
:100970002901C093280119C08091200180628093D1
:100980002001D0932B01C0932A010FC08091200138
:10099000886080932001D0932D01C0932C0105C065
:1009A000C038D1050CF04DCF47CFDF91CF911F91CB
:1009B00008951F93CF93DF93182FC8E0D2E011233F
:1009C00019F060E870E002C060E070E088812CDF20
:1009D000219682E0CD30D80791F7DF91CF911F911A
:1009E0000895CF92DF92EF92FF920F931F93CF93D0
:1009F000DF937C010DE012E0C0E0D0E06C0181E00B
:100A0000C81AD108EFEFEE16FE0619F0CC16DD0677
:100A100031F462EF70E0F801808106DF04C060E02D
:100A2000F801808183DE21960E5F1F4FC430D1050F
:100A300049F7DF91CF911F910F91FF90EF90DF90D9
:100A4000CF900895CF93DF93C0917C02D0917D0227
:100A5000CE3F8FEFD80731F480E090E0C2DF80E036
:100A6000A8DF10C0CF3F8FEFD80739F48FEF9FEF8B
:100A7000B8DF81E0DF91CF919CCF209719F481E01E
:100A800098DF2DC080E095DF80917A0290917B0203
:100A900083369105A4F010927B0210927A0221967F
:100AA000C530D1052CF4D0937D02C0937C020CC0DC
:100AB00081E090E090937D0280937C0205C0C29615
:100AC00090937B0280937A0280917A0290917B02CC
:100AD0004E972CF480917C0290917D0202C080E0C0
:100AE00090E0DF91CF917DCF84E492E00BD141E0A3
:100AF00050E060E472E088E394E0B9D28FEF9FEFBA
:100B000090937D0280937C029DDF68EC70E080E032
:100B100090E0F4DC10927D0210927C0208951F9206
:100B20000F920FB60F9211242F933F938F939F93A1
:100B3000AF93BF938091810290918202A091830232
:100B4000B09184023091800223E0230F2D3720F4EE
:100B50000196A11DB11D05C026E8230F0296A11D17
:100B6000B11D209380028093810290938202A09312
:100B70008302B09384028091850290918602A091B5
:100B80008702B09188020196A11DB11D8093850254
:100B900090938602A0938702B0938802BF91AF9191
:100BA0009F918F913F912F910F900FBE0F901F90AB
:100BB00018951F920F920FB60F9211240F900FBE2F
:100BC0000F901F9018958EBD00000DB407FEFDCF4D
:100BD0008EB50895CF93DF9300D000D0CDB7DEB7A8
:100BE0006CE572E0CE01019679D264E474E0CE0146
:100BF00001960DD2A1D06EE374E009D29DD068E3D6
:100C000074E005D2FC0144815581608171818DE8D9
:100C100092E010D070D0CE0101965CD283E692E0D3
:100C200071D026960FB6F894DEBF0FBECDBFDF9110
:100C3000CF910895CF92DF92EF92FF920F931F937F
:100C4000CF93DF936C017A018B01C0E0D0E0CE1529
:100C5000DF0581F0D8016D918D01D601ED91FC91F8
:100C60000190F081E02DC6011995892B11F0219694
:100C7000EECF7E01C701DF91CF911F910F91FF90C1
:100C8000EF90DF90CF9008950F931F93CF93DF9352
:100C9000EC0188819981009729F02A813B812617F0
:100CA000370780F48B016F5F7F4FB6D6009761F0F6
:100CB000998388831B830A832C813D81232B11F424
:100CC000FC01108281E001C080E0DF91CF911F9193
:100CD0000F910895CF93DF93EC018881998100975C
:100CE00009F011D6198218821D821C821B821A8279
:100CF000DF91CF91089542E050E065E772E08DE822
:100D000092E098CFCF93DF93009771F0FC010190B0
:100D10000020E9F73197AF01481B590BBC018DE862
:100D200092E088DFEC0102C0C0E0D0E0E4DF8C0F8D
:100D30009D1FDF91CF9108950F931F93CF93DF9362
:100D4000EC010C811D810F5F1F4FB8019DDF8823CF
:100D500061F0288139818C819D8168E772E0820F82
:100D6000931F58D71D830C8302C0CE01B3DFCE0181
:100D7000DF91CF911F910F91089590E0FC01E45114
:100D8000FE4F2491FC01EA55FE4F8491882399F08F
:100D900090E0880F991FFC01E457FE4FA591B49194
:100DA000FC01EE58FE4F859194918FB7F894EC9129
:100DB000E22BEC938FBF08950F931F93CF93DF9394
:100DC000C82FD62F0AE214E060E0F8018285AEDC7D
:100DD0008C2F880F8E77F7DE8D2FF5DE61E0F8011E
:100DE0008285DF91CF911F910F91A0CC0F931F931C
:100DF000CF93C82F0AE214E060E0F801828596DC08
:100E00008C2F880F8E778068DEDE80E0DCDEC82FD6
:100E100061E0F80182858ADC8C2FCF911F910F91C0
:100E20000895CF93DF93D82FC62FE0DF682F6C2B68
:100E30008D2FDF91CF91C0CFAF92BF92CF92DF9233
:100E4000EF92FF920F931F93CF93DF935C01C62E17
:100E50008A01E90167EF82E0AFDF84E0C7DF682F36
:100E60006F7784E0A9DF60E88AE0DBDF60E081E0A3
:100E7000A3DF7501D12CC7018A199B098C159D052B
:100E800030F4F70161917F0189E096DFF4CF6CE0E7
:100E900081E092DF60E88DE0C4DF60EDC62E67E0A0
:100EA000D62E84E0A3DFE82EF1E0CF1AD10811F0AE
:100EB0008173B9F38DE09ADF682F6F778DE07CDF67
:100EC000CD2809F43AC086E091DF8B71B1F58E2D03
:100ED0008170E82E8AE08ADFF82E8CE087DF877049
:100EE0002F2D30E051F02150310953E0220F331FF4
:100EF0005A95E1F7280F311D05C043E0220F331F3B
:100F00004A95E1F739832883FF2031F0E0E1EF15BE
:100F100028F490E1F92E02C0FF24F3946801CF2D4C
:100F2000D0E0C601801B910B8C179D0740F489E02F
:100F30005DDFF60181936F01F4CF82E0E82E8E2D04
:100F4000DF91CF911F910F91FF90EF90DF90CF90A5
:100F5000BF90AF9008951F93CF93DF9320914403E8
:100F6000309145032A303105FCF4EB01BC0112E15C
:100F7000129FC001139F900D112440E150E08A5B45
:100F80009C4F5DD68091440390914503189FF001DA
:100F9000199FF00D1124E65DFC4FD5A7C4A701965B
:100FA0009093450380934403DF91CF911F9108955F
:100FB000CF93DF93DC01ED91FC91EB01A881B98126
:100FC000309711F01097C9F4109759F0EB012C816C
:100FD0003D81232B31F08C9190E091958195910981
:100FE00013C0309779F0DC0114968D919C91159780
:100FF000892B41F0808190E007C0BD01CF01DF91D6
:10100000CF91FFC580E090E0DF91CF910895EF92FE
:10101000FF920F931F93CF93DF93EC01FB010481A9
:101020001581E080F180E114F104B9F0011511059A
:10103000B1F08C819D81080F191FB801CE0124DE0B
:10104000882359F0288139818C819D81B701820FD5
:10105000931FE0D51D830C8302C0CE013BDECE0181
:10106000DF91CF911F910F91FF90EF900895EF9234
:10107000FF920F931F93CF93DF93EC017B018A01C3
:10108000BA0102DE811103C0CE0124DE06C01D8339
:101090000C83B70188819981BDD5CE01DF91CF91B5
:1010A0001F910F91FF90EF900895CF93DF93EC0184
:1010B000FB018617970751F06081718161157105F9
:1010C00021F044815581D3DF01C004DECE01DF91E0
:1010D000CF910895FC018081918115C4FC0111829A
:1010E000108213821282158214826115710549F0F3
:1010F000FB0101900020E9F73197AF01461B570B28
:10110000B6CF0895CF93DF93CAE2D4E02697CE01FD
:10111000E1DF84E0C030D807C9F788E394E0DADF84
:101120008EE394E0D7DF84E494E0DF91CF91D2CFD7
:10113000CF93DF93CDB7DEB762970FB6F894DEBFDB
:101140000FBECDBF789484B5826084BD84B58160C4
:1011500084BD85B5826085BD85B5816085BD809182
:101160006E00816080936E001092810080918100FA
:1011700082608093810080918100816080938100F2
:10118000809180008160809380008091B1008460B4
:101190008093B1008091B00081608093B000809115
:1011A0009100826080939100809191008160809392
:1011B0009100809190008160809390008091A100C7
:1011C00082608093A1008091A10081608093A10042
:1011D0008091A00081608093A000809121018260B5
:1011E0008093210180912101816080932101809170
:1011F000200181608093200180917A008460809337
:101200007A0080917A00826080937A0080917A00DF
:10121000816080937A0080917A00806880937A0060
:101220001092C1001FB7F89480918902811120C0EB
:10123000EBEDF1E08491E1E2F2E09491E82FF0E04F
:10124000EE0FFF1FE457FE4FA591B491EC91E923F7
:1012500019F461E085E36ADA85E38FDD8CB580619E
:101260008CBD8CB580648CBD84E387DD83E385DD34
:10127000809189028F5F809389021FBF8DE07DDDA1
:1012800061E08091360452DA6FE081E095DD6DE82F
:101290008AE292DD6EE38BE28FDD6EE18DE28CDD22
:1012A00060E08CE289DD60E485E186DD6DE381E16B
:1012B00083DD84E19BDD837019F463E084E1B1DDBB
:1012C000E0919D02F0919E0282E08083E09199027C
:1012D000F0919A021082E0919B02F0919C028FECB7
:1012E00080831092A502E091A102F091A20286E013
:1012F0008083E0919F02F091A002808180618083D1
:10130000E0919F02F091A002808188608083E0914B
:101310009F02F091A002808180688083E0919F020B
:10132000F091A00280818F7D80836AEE75E080E578
:1013300092E011DE6AEB72E085E392E00CDE64EC91
:1013400072E08BE392E007DE64E775E086E592E009
:1013500002DE8DE012DD5524539496E2492E662478
:101360006A94762C3BE3A32E33E0B32E42E1342E75
:1013700080918C02852580938C02882311F061E096
:1013800001C060E08DE0D2D967E08DE015DD4982D3
:101390009E012F5E3F4FAE014F5F5F4F61E0CA017C
:1013A0004BDD81115DC089899A89409709F058C049
:1013B00010928B0210928A0260E08DE0FDDC83E9DE
:1013C000898380E28A839E012F5E3F4FAE014F5F8B
:1013D0005F4F62E0CA0130DD85E0FE013196AAE28E
:1013E000B4E001900D928A95E1F780912A0490E093
:1013F00020910002309101028217930709F44CC03A
:101400009093010280930002E5E1F2E020E030E0F9
:10141000419151918417950791F41A8219821C8287
:101420001B821E821D8286E0829FB001839F700D09
:10143000112460507C4FCE01019637DE0AC02F5F29
:101440003F4F2730310521F762E472E0CE0101966B
:1014500045DECE010196A2D8CE0101963BDE1CC02E
:1014600080918A0290918B028330910534F4019629
:1014700090938B0280938A020FC060E472E0CE01E9
:1014800001962CDECE01019689D8CE01019622DE8E
:1014900070920102609200028DE892E00E947D014C
:1014A000181619061CF58091FC039091FD03892BF9
:1014B00039F08091FC039091FD03019749F016C02B
:1014C0008DE892E00E947D0118161906C4F0F1CF54
:1014D0008091FE039091FF03DC01ED91FC9100846B
:1014E000F185E02D1995181619064CF0ABDA62E378
:1014F00070E080E090E002D80E94210239CF809114
:10150000FC039091FD03892B29F48DE892E00E9461
:101510005B010BC08091FE039091FF03DC01ED9114
:10152000FC910284F385E02D199580932A03909114
:101530002A0380913F03981343C010923C031092FA
:101540003B0342E453E06DE373E08BE293E011D19F
:101550006C019093410380934003892B39F2809072
:1015600044039090450386E4E82E83E0F82E00E0E3
:1015700010E0081519050CF049C040E150E0B70132
:10158000C6014FD3B2E1EB0EF11C892BB1F4309EB2
:10159000F001319EF00D1124E65DFC4F04A4F5A589
:1015A000E02D1995EBE2F3E01192AE16BF06E1F7DC
:1015B00010923C0310923B0303C00F5F1F4FD9CF23
:1015C00010912A03812F012E000C990B0BD3892B2C
:1015D00009F469CF80913B0390913C039C012F5FFC
:1015E0003F4F30933C0320933B03FC01E65DFC4FEF
:1015F0001183F901E65DFC4F1182203131050CF4B5
:1016000052CF10923C0310923B034DCFE091FA036E
:10161000F091FB031995EBE2F3E01192AE16BF06D1
:10162000E1F7C6CF1092900210928F0288EE93E0FD
:10163000A0E0B0E08093910290939202A093930275
:10164000B093940287E292E090938E0280938D0291
:1016500085EC90E090939A028093990284EC90E05C
:1016600090939C0280939B0280EC90E090939E026A
:1016700080939D0281EC90E09093A00280939F0262
:1016800082EC90E09093A2028093A10286EC90E01D
:101690009093A4028093A3021092A6021092A70234
:1016A0001092A8021092A90260E472E084E494E02F
:1016B00015DD60E472E08EE394E010DD60E472E03A
:1016C00088E394E00BDD89E090E09093350480930B
:1016D000340453DB60E08091340428D888E04DDB8B
:1016E00061E088E023D888E090E09093370480930D
:1016F000360467E672E080E094E0F0DC69E672E0D0
:1017000086E094E0EBDC6BE672E08CE094E0E6DCF3
:101710006DE672E082E194E0E1DC6FE672E088E180
:1017200094E0DCDC61E772E08EE194E0D7DC63E713
:1017300072E084E294E0D2DC1092FD031092FC038C
:1017400080E290E090933E0380933D038DE0809390
:101750003F031092450310924403EBE2F3E0119231
:1017600083E0EB33F807D9F710923C0310923B0368
:101770000895FA01A191B081009719F41097E1F052
:10178000CD01DC01CD010D90002011F4C00113C08A
:10179000FB012191222319F02015D9F7F3CFFB018A
:1017A0002191201519F41E92119606C02223C1F72B
:1017B0000D900020A1F7D001FA01A193B083089504
:1017C000992788270895EE0FFF1F881F8BBF07906A
:1017D000F691E02D19940F931F93CF93DF938230EE
:1017E000910510F482E090E0E0914C04F0914D04FA
:1017F00020E030E0A0E0B0E0309719F14081518165
:101800000281138148175907C8F08417950769F4B6
:10181000109731F012960C93129713961C9327C0D1
:1018200000934C0410934D0422C02115310519F08A
:101830004217530718F49A01BD01EF01DF01F801C7
:10184000DBCF21153105F9F0281B390B2430310588
:1018500080F48A819B816115710521F0FB019383DE
:10186000828304C090934D0480934C04FE01329611
:1018700044C0FE01E20FF31F81939193225031097E
:10188000398328833AC020914A0430914B04232B9A
:1018900041F4209104023091050230934B042093CF
:1018A0004A0420910202309103022115310541F4CE
:1018B0002DB73EB74091060250910702241B350B0D
:1018C000E0914A04F0914B04E217F307A0F42E1BB9
:1018D0003F0B2817390778F0AC014E5F5F4F241794
:1018E000350748F04E0F5F1F50934B0440934A0456
:1018F0008193919302C0E0E0F0E0CF01DF91CF91BE
:101900001F910F910895CF93DF93009709F481C041
:10191000FC01329713821282A0914C04B0914D04C5
:10192000109781F420813181820F931F20914A0406
:1019300030914B042817390751F5F0934B04E0938D
:101940004A0467C0ED0120E030E0CE17DF0740F425
:101950004A815B819E0141155105F1F0EA01F5CF05
:10196000D383C28340815181840F951FC817D90743
:1019700059F488819981840F951F02969183808301
:101980008A819B81938382832115310529F4F09309
:101990004D04E0934C043DC0E901FB83EA83499187
:1019A0005991C40FD51FEC17FD0761F48081918117
:1019B000840F951F0296E901998388838281938120
:1019C0009B838A83E0E0F0E012968D919C911397BF
:1019D000009719F0FD01DC01F7CF8D919C911197D3
:1019E0009D012E5F3F4F820F931F20914A0430913B
:1019F0004B042817390769F4309729F410924D04E5
:101A000010924C0402C013821282B0934B04A09334
:101A10004A04DF91CF9108956F927F928F929F92A7
:101A2000AF92BF92CF92DF92EF92FF920F931F93EC
:101A3000CF93DF93009781F4CB01DF91CF911F917A
:101A40000F91FF90EF90DF90CF90BF90AF909F905D
:101A50008F907F906F90BFCEFC01E60FF71F9C0127
:101A600022503109E217F30708F4A5C0EC01D901AF
:101A70000D911C91119706171707A8F00530110555
:101A800008F497C0C80104978617970708F491C017
:101A900002501109061B170B019311936D937C9350
:101AA000CF0131DF86C05B01A01AB10A4C01800E64
:101AB000911EA0914C04B0914D04612C712CE12C2D
:101AC000F12C109709F446C08D919C911197A8159F
:101AD000B905B1F56C0142E0C40ED11CCA14DB0497
:101AE00078F14C018A189B08640142E0C40ED11CB5
:101AF0001296BC9012971396AC91B5E0CB16D10418
:101B000040F0B282A38391828082D9016D937C934D
:101B100009C00E5F1F4F800F911FF90191838083D1
:101B2000EB2DFA2FE114F10431F0D7011396FC9359
:101B3000EE9312973EC0F0934D04E0934C0439C0ED
:101B40006816790608F43C017D0112960D90BC914F
:101B5000A02DB7CF80914A0490914B048816990626
:101B6000E1F466167706C8F48091020290910302B0
:101B7000009741F48DB79EB740910602509107023D
:101B8000841B950BE817F907B0F4F0934B04E0932E
:101B90004A04F901718360830CC0CB011CDE7C0117
:101BA000009749F0A801BE0123D0CE01ACDEC701E9
:101BB00004C0CE0102C080E090E0DF91CF911F9180
:101BC0000F91FF90EF90DF90CF90BF90AF909F90DC
:101BD0008F907F906F90089581E090E0F8943EC0E0
:101BE000803209F09111ECCD80528F55E0F70895C5
:101BF000FB01DC0102C001900D9241505040D8F72A
:101C00000895FB01DC018D91019080190110D9F339
:101C1000990B0895FB01DC0101900D920020E1F782
:101C20000895FB01DC014150504030F08D9101904E
:101C3000801919F40020B9F7881B990B0895FB014E
:101C4000DC014150504048F001900D920020C9F74E
:101C500001C01D9241505040E0F7089511E0CAE1E3
:101C6000D1E000E005C0802FFE01ADDD2196011D11
:0E1C7000CB31D10780E00807B1F7F894FFCF21
:101C7E00FFFF00004E048000363738393A04000565
:101C8E00000600070090004A00A2002100F1000BA0
:101C9E0000F90000000000B4011A064C0100027D9C
:101CAE00015B016F0173746172740073746F700065
:101CBE0030003F00726573657420726F62696E004A
:101CCE007374617465007265736574007374617406
:101CDE00653A00454F4D0058004100420043004414
:0A1CEE0000450046000D0A002F001B
:00000001FF
